0000091460200       14        CHCCHILD1A  CHC30402  2503201325022014YNN702031234567   1234567   01N                  00000G                @@@@          0000N25032013YY  25032013202                                               00000           
0000091460200       14        CHCCHILD2A  CHC30402  2503201325022014YNN702031234567   1234567   01N                  00000G                @@@@          0000N25032013YY  25032013204                                               00000           
0000091460200       14        CHCCHILD301ACHC30402  2503201325022014YNN702031234567   1234567   01N                  00000G                @@@@          0000N25032013YY  25032013203                                               00000           
0000091460200       14        CHCCHILD3A  CHC30402  2503201325022014YNN702031234567   1234567   01N                  00000G                @@@@          0000N25032013YY  25032013201                                               00000           
0000091460200       14        CHCCHILD401ACHC30402  2503201325022014YNN702031234567   1234567   01N                  00000G                @@@@          0000N25032013YY  25032013200                                               00000           
0000091460200       14        ICAA4041A             2503201324052013YNN00208                      N                  00000Z                @@@@          0000N00000000NN  25032013212                                               00000           
0000091460200       14        ICAA4047A             2503201324052013YNN00208                      N                  00000Z                @@@@          0000N00000000NN  25032013210                                               00000           
0000091460200       14        ICAA4142A             2503201324052013YNN00208                      N                  00000Z                @@@@          0000N00000000NN  25032013213                                               00000           
0000091460200       14        ICAA5044A             2503201324052013YNN00208                      N                  00000Z                @@@@          0000N00000000NN  25032013211                                               00000           
0000091460200       23        ICAA4041A             2503201324052013YNN20208                      N                  00000Z                @@@@          0000N00000000NN  25032013208                                               00000           
0000091460200       23        ICAA4047A             2503201324052013YNN20208                      N                  00000Z                @@@@          0000N00000000NN  25032013207                                               00000           
0000091460200       23        ICAA4142A             2503201324052013YNN20208                      N                  00000Z                @@@@          0000N00000000NN  25032013205                                               00000           
0000091460200       23        ICAA5044A             2503201324052013YNN20208                      N                  00000Z                @@@@          0000N00000000NN  25032013206                                               00000           
0000091460200       28        90990NSW/B            0105201301062013YNN20208                      N                  00000Z                @@@@          0030N00000000NN  01052013310                                               00000           
0000091460200       28        CHCCHILD301ACHC30402  0105201301062013YNN20203                    11N                  00000Z                @@@@          0000N00000000NN  01052013312                                               00000           
0000091460200       28        CHCCHILD3A  CHC30402  0105201301062013YNN20203                    11N                  00000Z                @@@@          0000N00000000NN  01052013311                                               00000           
0000091460200       28        ISH1                  0105201301062013YNN20208                      N                  00000Z                @@@@          0000N00000000NN  01052013309                                               00000           
0000091460220       10        ISH203                0403201322042013YNN00208                      N                  00069Z                @@@@          0016N04032013NN  04032013273                                               00000           
0000091460220       11        ISH203                0403201322042013YNN82208                      N                  00069Z                @@@@          0016N04032013NN  04032013278                                               00000           
0000091460220       12        CHCAC10A    CHC30102  0403201217032013YNN00204                    11N                  00000Z                @@@@          0000N04032012NN  04032012227                                               00000           
0000091460220       12        CHCAC11A    CHC30102  0403201217032013YNN00204                    11N                  00000Z                @@@@          0000N04032012NN  04032012225                                               00000           
0000091460220       12        CHCAC12A    CHC30102  0403201217032013YNN00204                    11N                  00000Z                @@@@          0000N04032012NN  04032012228                                               00000           
0000091460220       12        CHCAC13A    CHC30102  0403201217032013YNN00204                    11N                  00000Z                @@@@          0000N04032012NN  04032012224                                               00000           
0000091460220       12        CHCAC15A    CHC30102  0403201217032013YNN00204                    11N                  00000Z                @@@@          0000N04032012NN  04032012226                                               00000           
0000091460220       12        CHCAC16A    CHC30102  0403201217032013YNN00204                    11N                  00000Z                @@@@          0000N04032012NN  04032012220                                               00000           
0000091460220       12        CHCAC17A    CHC30102  0403201217032013YNN00204                    11N                  00000Z                @@@@          0000N04032012NN  04032012221                                               00000           
0000091460220       12        CHCAC1A     CHC30102  0403201217032013YNN00204                    11N                  00000Z                @@@@          0000N04032012NN  04032012223                                               00000           
0000091460220       12        CHCAC2A     CHC30102  0403201217032013YNN00204                    11N                  00000Z                @@@@          0000N04032012NN  04032012222                                               00000           
0000091460220       12        CHCAC2C     CHC30102  0403201217032013YNN00204                    11N                  00000Z                @@@@          0000N04032012NN  04032012229                                               00000           
0000091460220       16        ISH203                0403201322042013YNN00208                      N                  00069Z                @@@@          0016N04032013NN  04032013283                                               00000           
0000091460220       19        CHCAC10A    CHC30102  0403201217032013YNN40204                    11N                  00000Z                @@@@          0000I04032012NN  04032012238                                               00000           
0000091460220       19        CHCAC11A    CHC30102  0403201217032013NNN52204                    11N                  00000Z                @@@@          0000N04032012NN  04032012236                                               00000           
0000091460220       19        CHCAC12A    CHC30102  0403201217032013NNN54204                    11N                  00000Z                @@@@          0000N04032012NN  04032012233                                               00000           
0000091460220       19        CHCAC15A    CHC30102  0403201217032013YNN00204                    11N                  00000Z                @@@@          0000N04032012NN  04032012237                                               00000           
0000091460220       19        CHCAC16A    CHC30102  0403201217032013NYN81204                    11N                  00000Z                @@@@          0000E04032012NN  04032012232                                               00000           
0000091460220       19        CHCAC17A    CHC30102  0403201217032013NNY20204                    11N                  00000Z                @@@@          0000W04032012NN  04032012234                                               00000           
0000091460220       19        CHCAC1A     CHC30102  0403201217032013NNN20204                    11N                  00000Z                @@@@          0000N04032012NN  04032012235                                               00000           
0000091460220       19        CHCAC2A     CHC30102  0403201217032013NYN20204                    11N                  00000Z                @@@@          0000E04032012NN  04032012239                                               00000           
0000091460220       19        CHCAC2C     CHC30102  0403201217032013YNN20204                    11N                  00000Z                @@@@          0000I04032012NN  04032012231                                               00000           
0000091460220       24        CHCAC10A    CHC30102  0403201217032013YNN20204                    11N                  00000Z                @@@@          0000N04032012NN  04032012244                                               00000           
0000091460220       24        CHCAC11A    CHC30102  0403201217032013YNN20204                    11N                  00000Z                @@@@          0000N04032012NN  04032012248                                               00000           
0000091460220       24        CHCAC12A    CHC30102  0403201217032013YNY20204                    11N                  00000Z                @@@@          0000I04032012NN  04032012241                                               00000           
0000091460220       24        CHCAC13A    CHC30102  0403201217032013YNN20204                    11N                  00000Z                @@@@          0000N04032012NN  04032012249                                               00000           
0000091460220       24        CHCAC15A    CHC30102  0403201217032013YYY20204                    11N                  00000Z                @@@@          0000I04032012NN  04032012243                                               00000           
0000091460220       24        CHCAC16A    CHC30102  0403201217032013YNN20204                    11N                  00000Z                @@@@          0000N04032012NN  04032012247                                               00000           
0000091460220       24        CHCAC17A    CHC30102  0403201217032013YNN20204                    11N                  00000Z                @@@@          0000N04032012NN  04032012246                                               00000           
0000091460220       24        CHCAC1A     CHC30102  0403201217032013NYY20204                    11N                  00000Z                @@@@          0000E04032012NN  04032012242                                               00000           
0000091460220       24        CHCAC2A     CHC30102  0403201217032013YNN20204                    11N                  00000Z                @@@@          0000N04032012NN  04032012245                                               00000           
0000091460220       24        CHCAC2C     CHC30102  0403201217032013YYN20204                    11N                  00000Z                @@@@          0000I04032012NN  04032012240                                               00000           
0000091460220       25        ISH203                0403201322042013YNN00208                      N                  00069Z                @@@@          0016N04032013NN  04032013288                                               00000           
0000091460221       10        90990NSW/A            0803201331082013YNN20208                      N                  00012Z                @@@@          0030N08032013NN  08032013271                                               00000           
0000091460221       10        90990NSW/B            0803201329032013YNN20208                      N                  00012Z                @@@@          0030N08032013NN  08032013272                                               00000           
0000091460221       10        90990NSW/C            0803201329032013YNN20208                      N                  00012Z                @@@@          0030N08032013NN  08032013270                                               00000           
0000091460221       11        90990NSW/A            0803201329032013YNN20208                      N                  00018Z                @@@@          0030N08032013NN  08032013275                                               00000           
0000091460221       11        90990NSW/B            0803201329032013NNN60208                      N                  00000Z                @@@@          0000N08032013NN  08032013277                                               00000           
0000091460221       16        90990NSW/A            0803201329032013NNN60208                      N                  00000Z                @@@@          0000I08032013NN  08032013280                                               00000           
0000091460221       16        90990NSW/B            0803201329032013YNN00208                      N                  00018Z                @@@@          0030N08032013NN  08032013281                                               00000           
0000091460221       16        90990NSW/C            0803201329032013YNN81208                      N                  00018Z                @@@@          0030N08032013NN  08032013282                                               00000           
0000091460221       17        90990NSW/A            0703201307042013YNN20138                      N               LSG00122Z 54321       987@@@@          0030N07032013NN  07032013293                                               00000           
0000091460221       17        90990NSW/B            0705201307052013NNN51138                      N               LSG00122Z 54321       987@@@@          0030N07032013NN  07032013295                                               00000           
0000091460221       17        90990NSW/C            0706201307062013YNN40138                      N               LSG00122Z 54321       9870010          0030N07032013NN  07032013294                                               00000           
0000091460221       22        90990NSW/A            0703201307042013YNN20138                      NABC            LSG00367M 54321       987@@@@          0030N07032013YY  07032013290                                               00000           
0000091460221       22        90990NSW/C            0706201319042014YNN70138                      N               LSG00367M 54321       987@@@@          0030N07032013YY  07032013291                                               00000           
0000091460221       25        90990NSW/A            0803201301052014YNN70208                      N                  00018Z                @@@@          0030N08032013NN  08032013287                                               00000           
0000091460221       25        90990NSW/B            0803201329032013YNN40208                      N                  00018Z                @@@@          0030N08032013NN  08032013285                                               00000           
0000091460221       25        90990NSW/C            0803201329032013NNN53208                      N                  00000Z                @@@@          0030N08032013NN  08032013286                                               00000           
0000091460221       29        CHCCHILD401ACHC30402  0105201201062013YNN20204                    11N                  00000Y                @@@@          0000N00000000NN  09042013313                                               00000           
0000091460221       8         CHCCHILD401ACHC30402  0105201201062013YNN20204                    11N                  00000Y                @@@@          0000N00000000NN  09042013308                                               00000           
0000091460221       8         ICAA4041A             0304201101062013YNN20208                      N                  00000Y                @@@@          0000N03042011NN  03042011303                                               00000           